:020000040800F2
:1000000000C00020613F00088D3500088F350008D2
:100010009135000893350008953500080000000070
:1000200000000000000000000000000097350008FC
:1000300099350008000000009B3500089D35000838
:10004000A93F0008A93F0008A93F0008A93F0008F0
:10005000A93F0008A93F0008A93F0008A93F0008E0
:10006000A93F0008A93F0008A93F0008A93F0008D0
:10007000A93F0008A93F0008A93F0008A93F0008C0
:10008000A93F0008A93F0008A93F0008A93F0008B0
:10009000A93F0008A93F0008A93F0008A93F0008A0
:1000A000A93F0008A5350008A93F0008A93F00089E
:1000B000A93F0008A93F0008A93F0008A93F000880
:1000C000A93F0008A93F0008A93F0008A93F000870
:1000D000A93F0008B5350008C5350008D53500082A
:1000E000A93F0008A93F0008A93F0008A93F000850
:1000F000A93F0008A93F0008A93F0008A93F000840
:10010000A93F0008A93F0008A93F0008A93F00082F
:10011000A93F0008A93F0008A93F0008A93F00081F
:10012000A93F0008A93F0008A93F0008A93F00080F
:1001300000000000000000000000000000000000BF
:1001400000000000000000000000000000000000AF
:10015000000000000000000000000000000000009F
:10016000000000000000000000000000000000008F
:10017000000000000000000000000000000000007F
:10018000000000000000000000000000000000006F
:10019000000000000000000000000000000000005F
:1001A000000000000000000000000000000000004F
:1001B000000000000000000000000000000000003F
:1001C000000000000000000000000000000000002F
:1001D000000000000000000000000000000000001F
:0401E0005FF8E0F1F3
:1001E80010B5054C237833B9044B13B10448AFF369
:1001F80000800123237010BDF809002000000000D2
:100208009410010808B5034B1BB103490348AFF329
:10021800008008BD00000000FC09002094100108BF
:1002280081F0004102E000BF83F0004330B54FEA9F
:1002380041044FEA430594EA050F08BF90EA020F0C
:100248001FBF54EA000C55EA020C7FEA645C7FEA9F
:10025800655C00F0E2804FEA5454D4EB5555B8BFC2
:100268006D420CDD2C4480EA020281EA030382EA33
:10027800000083EA010180EA020281EA0303362DC5
:1002880088BF30BD11F0004F4FEA01314FF4801C98
:100298004CEA113102D0404261EB410113F0004FAA
:1002A8004FEA03334CEA133302D0524263EB430361
:1002B80094EA050F00F0A780A4F10104D5F1200EFF
:1002C8000DDB02FA0EFC22FA05F2801841F100015A
:1002D80003FA0EF2801843FA05F359410EE0A5F12E
:1002E80020050EF1200E012A03FA0EFC28BF4CF05F
:1002F800020C43FA05F3C01851EBE37101F0004515
:1003080007D54FF0000EDCF1000C7EEB00006EEB21
:100318000101B1F5801F1BD3B1F5001F0CD34908AB
:100328005FEA30004FEA3C0C04F101044FEA445202
:1003380012F5800F80F09A80BCF1004F08BF5FEA89
:10034800500C50F1000041EB045141EA050130BD69
:100358005FEA4C0C404141EB0101013C28BFB1F57B
:10036800801FE9D291F0000F04BF01460020B1FAC6
:1003780081F308BF2033A3F10B03B3F120020CDA99
:100388000C3208DD02F1140CC2F10C0201FA0CF077
:1003980021FA02F10CE002F11402D8BFC2F1200CDC
:1003A80001FA02F120FA0CFCDCBF41EA0C01904092
:1003B800E41AA2BF01EB0451294330BD6FEA0404DB
:1003C8001F3C1CDA0C340EDC04F11404C4F12002C6
:1003D80020FA04F001FA02F340EA030021FA04F3D8
:1003E80045EA030130BDC4F10C04C4F1200220FA2F
:1003F80002F001FA04F340EA0300294630BD21FA6D
:1004080004F0294630BD94F0000F83F4801306BF32
:1004180081F480110134013D4EE77FEA645C18BF26
:100428007FEA655C29D094EA050F08BF90EA020FBD
:1004380005D054EA000C04BF1946104630BD91EAB5
:10044800030F1EBF0021002030BD5FEA545C05D1B8
:100458004000494128BF41F0004130BD14F58004F7
:100468003CBF01F5801130BD01F0004545F0FE416B
:1004780041F470014FF0000030BD7FEA645C1ABFA0
:10048800194610467FEA655C1CBF0B46024650EAD7
:10049800013406BF52EA033591EA030F41F4002103
:1004A80030BD00BF90F0000F04BF0021704730B589
:1004B8004FF4806404F132044FF000054FF000015E
:1004C80050E700BF90F0000F04BF0021704730B51F
:1004D8004FF4806404F1320410F0004548BF4042F4
:1004E8004FF000013EE700BF42004FEAE2014FEA49
:1004F80031014FEA02701FBF12F07F4393F07F4F24
:1005080081F06051704732F07F4208BF704793F026
:100518007F4F04BF41F40021704730B54FF4607439
:1005280001F0004521F000411CE700BF50EA01023C
:1005380008BF704730B54FF000050AE050EA0102E5
:1005480008BF704730B511F0004502D5404261EB55
:1005580041014FF4806404F132045FEA915C3FF496
:10056800D8AE4FF003025FEADC0C18BF03325FEA33
:10057800DC0C18BF033202EBDC02C2F1200300FAE4
:1005880003FC20FA02F001FA03FE40EA0E0021FA09
:1005980002F11444BDE600BF70B54FF0FF0C4CF4F7
:1005A800E06C1CEA11541DBF1CEA135594EA0C0FA9
:1005B80095EA0C0F00F0DEF82C4481EA030621EAE4
:1005C8004C5123EA4C5350EA013518BF52EA03351F
:1005D80041F4801143F4801338D0A0FB02CE4FF0D1
:1005E8000005E1FB02E506F00042E0FB03E54FF001
:1005F8000006E1FB03569CF0000F18BF4EF0010EF9
:10060800A4F1FF04B6F5007F64F5407404D25FEAF4
:100618004E0E6D4146EB060642EAC62141EA5551A7
:100628004FEAC52040EA5E504FEACE2EB4F1FD0CE9
:1006380088BFBCF5E06F1ED8BEF1004F08BF5FEA67
:10064800500E50F1000041EB045170BD06F0004619
:1006580046EA010140EA020081EA0301B4EB5C04C6
:10066800C2BFD4EB0C0541EA045170BD41F48011BE
:100678004FF0000E013C00F3AB8014F1360FDEBFE3
:10068800002001F0004170BDC4F10004203C35DABF
:100698000C341BDC04F11404C4F1200500FA05F342
:1006A80020FA04F001FA05F240EA020001F00042E3
:1006B80021F0004110EBD37021FA04F642EB060159
:1006C8005EEA430E08BF20EAD37070BDC4F10C0483
:1006D800C4F1200500FA04F320FA05F001FA04F247
:1006E80040EA020001F0004110EBD37041F1000133
:1006F8005EEA430E08BF20EAD37070BDC4F120053E
:1007080000FA05F24EEA020E20FA04F301FA05F2A5
:1007180043EA020321FA04F001F0004121FA04F24D
:1007280020EA020000EBD3705EEA430E08BF20EA1D
:10073800D37070BD94F0000F0FD101F00046400057
:1007480041EB010111F4801F08BF013CF7D041EAD9
:10075800060195F0000F18BF704703F000465200DD
:1007680043EB030313F4801F08BF013DF7D043EAAE
:100778000603704794EA0C0F0CEA135518BF95EA64
:100788000C0F0CD050EA410618BF52EA4306D1D1EB
:1007980081EA030101F000414FF0000070BD50EA0A
:1007A800410606BF1046194652EA430619D094EA94
:1007B8000C0F02D150EA013613D195EA0C0F05D17E
:1007C80052EA03361CBF104619460AD181EA0301D2
:1007D80001F0004141F0FE4141F470014FF000008A
:1007E80070BD41F0FE4141F4780170BD70B54FF025
:1007F800FF0C4CF4E06C1CEA11541DBF1CEA1355A5
:1008080094EA0C0F95EA0C0F00F0A7F8A4EB050486
:1008180081EA030E52EA03354FEA013100F088807D
:100828004FEA03334FF0805545EA131343EA126346
:100838004FEA022245EA111545EA10654FEA0026FB
:100848000EF000419D4208BF964244F1FD0404F5B4
:10085800407402D25B084FEA3202B61A65EB030510
:100868005B084FEA32024FF480104FF4002CB6EBCD
:10087800020E75EB030E22BFB61A754640EA0C004D
:100888005B084FEA3202B6EB020E75EB030E22BF8D
:10089800B61A754640EA5C005B084FEA3202B6EBCE
:1008A800020E75EB030E22BFB61A754640EA9C008D
:1008B8005B084FEA3202B6EB020E75EB030E22BF5D
:1008C800B61A754640EADC0055EA060E18D04FEA1B
:1008D800051545EA16754FEA06164FEAC30343EABB
:1008E80052734FEAC2025FEA1C1CC0D111F4801F88
:1008F8000BD141EA00014FF000004FF0004CB6E781
:1009080011F4801F04BF01430020B4F1FD0C88BF1F
:10091800BCF5E06F3FF6AFAEB5EB030C04BFB6EB2A
:10092800020C5FEA500C50F1000041EB045170BD1D
:100938000EF0004E4EEA113114EB5C04C2BFD4EB4A
:100948000C0541EA045170BD41F480114FF0000ECE
:10095800013C90E645EA060E8DE60CEA135594EA4A
:100968000C0F08BF95EA0C0F3FF43BAF94EA0C0F4D
:100978000AD150EA01347FF434AF95EA0C0F7FF4C2
:1009880025AF104619462CE795EA0C0F06D152EA16
:1009980003353FF4FDAE1046194622E750EA4106FA
:1009A80018BF52EA43067FF4C5AE50EA41047FF40B
:1009B8000DAF52EA43057FF4EBAE12E74FF0FF3C70
:1009C80006E000BF4FF0010C02E000BF4FF0010C41
:1009D8004DF804CD4FEA410C7FEA6C5C4FEA430CBA
:1009E80018BF7FEA6C5C1BD001B050EA410C0CBF09
:1009F80052EA430C91EA030F02BF90EA020F00206B
:100A0800704710F1000F91EA030F58BF994208BFD1
:100A180090422CBFD8176FEAE37040F0010070478E
:100A28004FEA410C7FEA6C5C02D150EA013C07D1E5
:100A38004FEA430C7FEA6C5CD6D152EA033CD3D030
:100A48005DF8040B704700BF8446104662468C462A
:100A58001946634600E000BF01B5FFF7B7FF00285D
:100A680048BF10F1000F01BD4DF808EDFFF7F4FF86
:100A78000CBF012000205DF808FB00BF4DF808ED11
:100A8800FFF7EAFF34BF012000205DF808FB00BF34
:100A98004DF808EDFFF7E0FF94BF012000205DF856
:100AA80008FB00BF4DF808EDFFF7CEFF94BF01200B
:100AB80000205DF808FB00BF4DF808EDFFF7C4FF04
:100AC80034BF012000205DF808FB00BF4FEA410C4D
:100AD8007FEA6C5C02D150EA013C0AD14FEA430C30
:100AE8007FEA6C5C02D152EA033C02D14FF000006D
:100AF80070474FF0010070474A0011D212F50012FA
:100B080011D20DD56FF47873B3EB62520ED44FEA5D
:100B1800C12343F0004343EA505323FA02F07047DD
:100B28004FF00000704750EA013002D14FF0FF301B
:100B380070474FF0000070474FEA4102B2F1E043BE
:100B480024BFB3F5001CDCF1FE5C0DD901F0004CAC
:100B58004FEAC0024CEA5070B2F1004F40EB8300FC
:100B680008BF20F00100704711F0804F21D113F128
:100B78003872BCBF01F00040704741F480114FEA61
:100B88005252C2F11802C2F1200C10FA0CF320FAEA
:100B980002F018BF40F001004FEAC1234FEAD32307
:100BA80003FA0CFC40EA0C0023FA02F34FEA430371
:100BB800CCE77FEA625307D150EA01331EBF4FF0FA
:100BC800FE4040F44000704701F0004040F0FE4015
:100BD80040F40000704700BF80F0004002E000BF12
:100BE80081F0004142001FBF5FEA410392EA030F10
:100BF8007FEA226C7FEA236C6AD04FEA1262D2EB5A
:100C08001363C1BFD218414048404140B8BF5B425E
:100C1800192B88BF704710F0004F40F4000020F0F7
:100C28007F4018BF404211F0004F41F4000121F00D
:100C38007F4118BF494292EA030F3FD0A2F1010257
:100C480041FA03FC10EB0C00C3F1200301FA03F195
:100C580000F0004302D5494260EB4000B0F5000FB8
:100C680013D3B0F1807F06D340084FEA310102F177
:100C78000102FE2A51D2B1F1004F40EBC25008BF29
:100C880020F0010040EA03007047490040EB0000F3
:100C9800013A28BFB0F5000FEDD2B0FA80FCACF1F4
:100CA800080CB2EB0C0200FA0CF0AABF00EBC25021
:100CB80052421843BCBFD0401843704792F0000F0F
:100CC80081F4000106BF80F400000132013BB5E762
:100CD8004FEA41037FEA226C18BF7FEA236C21D0D8
:100CE80092EA030F04D092F0000F08BF084670473D
:100CF80090EA010F1CBF0020704712F07F4F04D10B
:100D0800400028BF40F00040704712F100723CBF1D
:100D180000F50000704700F0004343F0FE4040F447
:100D2800000070477FEA226216BF08467FEA236305
:100D38000146420206BF5FEA412390EA010F40F4F0
:100D4800800070474FF0000304E000BF10F000433C
:100D580048BF40425FEA000C08BF704743F0964323
:100D680001464FF000001CE050EA010208BF70473E
:100D78004FF000030AE000BF50EA010208BF7047C5
:100D880011F0004302D5404261EB41015FEA010CDA
:100D980002BF84460146002043F0B64308BFA3F1D2
:100DA8008053A3F50003BCFA8CF2083AA3EBC253B4
:100DB80010DB01FA02FC634400FA02FCC2F12002D3
:100DC800BCF1004F20FA02F243EB020008BF20F00A
:100DD8000100704702F1200201FA02FCC2F1200270
:100DE80050EA4C0021FA02F243EB020008BF20EA65
:100DF800DC7070474FF0FF0C1CEAD0521EBF1CEA93
:100E0800D15392EA0C0F93EA0C0F6FD01A4480EA80
:100E1800010C400218BF5FEA41211ED04FF0006369
:100E280043EA501043EA5111A0FB01310CF0004095
:100E3800B1F5000F3EBF490041EAD3715B0040EABB
:100E4800010062F17F02FD2A1DD8B3F1004F40EB8B
:100E5800C25008BF20F00100704790F0000F0CF05E
:100E6800004C08BF49024CEA502040EA51207F3A22
:100E7800C2BFD2F1FF0340EAC250704740F40000FD
:100E88004FF00003013A5DDC12F1190FDCBF00F0EE
:100E980000407047C2F10002410021FA02F1C2F19C
:100EA800200200FA02FC5FEA310040F1000053EA38
:100EB8004C0308BF20EADC70704792F0000F00F086
:100EC800004C02BF400010F4000F013AF9D040EA8C
:100ED8000C0093F0000F01F0004C02BF490011F420
:100EE800000F013BF9D041EA0C018FE70CEAD1531E
:100EF80092EA0C0F18BF93EA0C0F0AD030F0004C9E
:100F080018BF31F0004CD8D180EA010000F0004051
:100F1800704790F0000F17BF90F0004F084691F00F
:100F2800000F91F0004F14D092EA0C0F01D1420249
:100F38000FD193EA0C0F03D14B0218BF084608D112
:100F480080EA010000F0004040F0FE4040F400005C
:100F5800704740F0FE4040F4400070474FF0FF0CEF
:100F68001CEAD0521EBF1CEAD15392EA0C0F93EA36
:100F78000C0F69D0A2EB030280EA010C49024FEA88
:100F8800402037D04FF0805343EA111143EA101341
:100F98000CF000408B4238BF5B0042F17D024FF4F9
:100FA800000C8B4224BF5B1A40EA0C00B3EB510FD4
:100FB80024BFA3EB510340EA5C00B3EB910F24BFBD
:100FC800A3EB910340EA9C00B3EBD10F24BFA3EB42
:100FD800D10340EADC001B0118BF5FEA1C1CE0D10A
:100FE800FD2A3FF650AF8B4240EBC25008BF20F0BD
:100FF800010070470CF0004C4CEA50207F32C2BF11
:10100800D2F1FF0340EAC250704740F400004FF0AD
:101018000003013A37E792F0000F00F0004C02BFDE
:10102800400010F4000F013AF9D040EA0C0093F0A8
:10103800000F01F0004C02BF490011F4000F013B02
:10104800F9D041EA0C0195E70CEAD15392EA0C0F6A
:1010580008D142027FF47DAF93EA0C0F7FF470AFA2
:10106800084676E793EA0C0F04D14B023FF44CAFE5
:1010780008466EE730F0004C18BF31F0004CCAD17A
:1010880030F000427FF45CAF31F000437FF43CAFB6
:101098005FE700BF4FF0FF3C06E000BF4FF0010CD8
:1010A80002E000BF4FF0010C4DF804CD4FEA4002BA
:1010B8004FEA41037FEA226C18BF7FEA236C11D004
:1010C80001B052EA530C18BF90EA010F58BFB2EBB7
:1010D800030088BFC81738BF6FEAE17018BF40F037
:1010E800010070477FEA226C02D15FEA402C05D1EB
:1010F8007FEA236CE4D15FEA412CE1D05DF8040B70
:10110800704700BF844608466146FFE70FB5FFF702
:10111800C9FF002848BF10F1000F0FBD4DF808EDBA
:10112800FFF7F4FF0CBF012000205DF808FB00BFAB
:101138004DF808EDFFF7EAFF34BF012000205DF805
:1011480008FB00BF4DF808EDFFF7E0FF94BF012052
:1011580000205DF808FB00BF4DF808EDFFF7D2FF4F
:1011680094BF012000205DF808FB00BF4DF808ED92
:10117800FFF7C8FF34BF012000205DF808FB00BF5F
:101188004FEA4002B2F1FE4F0FD34FF09E03B3EB8C
:1011980012620DD94FEA002343F0004310F0004FCC
:1011A80023FA02F018BF404270474FF00000704722
:1011B80012F1610F01D1420205D110F0004008BFC1
:1011C8006FF0004070474FF00000704742000ED2A9
:1011D800B2F1FE4F0BD34FF09E03B3EB126209D46A
:1011E8004FEA002343F0004323FA02F070474FF020
:1011F8000000704712F1610F01D1420202D14FF095
:10120800FF3070474FF00000704700BF7BB972B9DC
:101218000029BEBF00204FF0004106E008BF0028AB
:101228001CBF6FF000414FF0FF3001F037B9ADF14E
:10123800080C6DE904CE002909DB002B1ADB00F04D
:1012480035F8DDF804E0DDE9022304B070474042D8
:1012580061EB4101002B1BDB00F028F8DDF804E00E
:10126800DDE9022304B0404261EB4101524263EBE5
:1012780043037047524263EB430300F017F8DDF86D
:1012880004E0DDE9022304B0404261EB410170470C
:10129800524263EB430300F009F8DDF804E0DDE9AE
:1012A800022304B0524263EB430370472DE9F04731
:1012B800089E0D4604468846002B4DD18A42944626
:1012C80068D9B2FA82F252B101FA02F3C2F12001EE
:1012D80020FA01F10CFA02FC41EA030894404FEAB3
:1012E8001C41B8FBF1F71FFA8CFE01FB178807FBBE
:1012F8000EF0230C43EA084398420AD91CEB030377
:1013080007F1FF3580F01E81984240F21B81023FB1
:1013180063441B1AB3FBF1F001FB103300FB0EFE14
:10132800A4B244EA0344A6450AD91CEB040400F11C
:10133800FF3380F00981A64540F2068164440238F3
:101348000021A4EB0E0440EA07401EB10023D4405C
:10135800C6E90043BDE8F0878B4208D9002E00F0AB
:10136800EE800021C6E900050846BDE8F087B3FA1B
:1013780083F100294AD1AB4202D3824200F2FC80B9
:10138800841A65EB030301209846002EE2D0C6E9D3
:101398000048DFE702B9FFDEB2FA82F2002A40F025
:1013A8009180A1EB0C0001214FEA1C471FFA8CFE2B
:1013B800B0FBF7F307FB1300250C45EA00450EFBCD
:1013C80003F0A84208D91CEB050503F1FF3802D247
:1013D800A84200F2CE8043462D1AB5FBF7F007FB72
:1013E80010550EFB00FEA4B244EA0544A64508D9F0
:1013F8001CEB040400F1FF3502D2A64500F2B680CA
:101408002846A4EB0E0440EA03409EE7C1F12007FA
:101418008B4022FA07FC4CEA030C25FA07FA4FEA3C
:101428001C49BAFBF9F820FA07F309FB18AA8D4002
:101438001FFA8CFE1D4300FA01F308FB0EF02C0C7A
:1014480044EA0A44A04202FA01F20BD91CEB040454
:1014580008F1FF3A80F08880A04240F28580A8F128
:1014680002086444241AB4FBF9F009FB104400FB99
:101478000EFEADB245EA0444A64508D91CEB0404A7
:1014880000F1FF356CD2A6456AD90238644440EAB7
:101498000840A0FB0295A4EB0E04AC42C846AE4639
:1014A80056D353D0002E69D0B3EB080264EB0E0478
:1014B80022FA01F304FA07F71F43CC40C6E9007487
:1014C800002147E70CFA02FCC2F1200125FA01F3DA
:1014D8004FEA1C4720FA01F195400D43B3FBF7F1A1
:1014E80007FB11331FFA8CFE280C40EA034001FB6E
:1014F8000EF3834204FA02F408D91CEB000001F150
:10150800FF382FD283422DD902396044C01AB0FB6C
:10151800F7F307FB1300ADB245EA004503FB0EF0F5
:10152800A84208D91CEB050503F1FF3816D2A842DA
:1015380014D9023B6544281A43EA014138E7314689
:10154800304607E72F46E4E61846F9E64B45A9D2A8
:10155800B9EB020865EB0C0E0138A3E74346EAE74E
:10156800284694E74146D1E7D0467BE764440238F1
:1015780047E7023B65442FE7084606E73146E9E6B8
:1015880003685A004CBF43F0004323F0004318445B
:10159800704700BF2DE9F84339B34F1E044615467E
:1015A8003E464FF0000808EB060101EBD1714910E7
:1015B80004EBC1094846FFF7E3FF0346C8000830BB
:1015C8008F4220440BD0AB420BD8FFF7D9FF01382C
:1015D800A84201F10108E6D34846BDE8F883AB42CA
:1015E800FAD9884501D04E1EDDE74FF0000948467C
:1015F800BDE8F883012807D0022807D0044B00284B
:101608000CBF1846002070470248704702487047D0
:10161800ED1C0008F11C0008F51C000830B5244B2F
:10162800044683B08D1E3BB3284601A9AFF3008062
:10163800E8B101992A46FFF7ADFF0146B8B1FFF7B7
:101648009FFF4B68A064012B2ED0002B27DB081DC1
:10165800FFF796FF0023C4E913030368002B12DB8E
:10166800FFF78EFF03460020236103B030BD00233F
:101678000920236103B030BD0E4B0F491846C91A23
:10168800C9100191D6E7C3F30360FFF7B3FF002841
:10169800034614BF00200920236103B030BD012395
:1016A800081DC4E91303D8E7002305202361DCE7FC
:1016B80000000000D8450108D8460108036810B5A5
:1016C800DA07044606D49B0700F1480009D500F064
:1016D8005DFC2368590709D51A070ED5DB0613D513
:1016E80010BD00F04BFC23685907F5D404F1D00075
:1016F80000F054FC23681A07F0D404F5A87000F031
:1017080055FC2368DB06EBD404F5E870BDE810400F
:1017180000F090BC092070470346006800B11844E7
:10172800704700BF704700BF70B504460E4620469C
:10173800316CFFF773FF054698B9D6F840C03246BA
:10174800214601202369C4F814C098470828EED020
:10175800072806D12846316CFFF7E4FF301D00F05A
:1017680001FC09F071FB00BF2DE9F0474FF0000ABA
:10177800ADF5727D0DF10C0E01F1040CC768D0F8BF
:10178800188006461446BCE80F00AEE80F00BCE817
:101798000F00AEE80F00BCE80F00AEE80F009CE8B1
:1017A8000F0002AD8EE80F00C5F800A021E02B6CF9
:1017B8004FF4F072294673617AA800F071FE314641
:1017C800504633697AAA9847889C82466C643346A7
:1017D800324649460120CDE90058B8470446F0B9D9
:1017E8004FF4F07228467AA900F05AFEBAF1080FB1
:1017F8001BD13046296CFFF711FF04F109095FFA84
:1018080089FA04460028D2D0A96B33466964324667
:101818000120CDE900584AF01001B84700B1092469
:1018280020460DF5727DBDE8F087BAF1070FF6D1B5
:101838002046296CFFF776FF03A800F093FB00BF52
:10184800406C7047F0B54FF0FF37CB6BF9B00B64C5
:1018580001AC01F1040C0E460546BCE80F000FC4AC
:10186800BCE80F000FC4BCE80F000FC49CE80F00D1
:1018780084E80F00009706E06A4629462B699847D6
:101888000828044608D128461099FFF7C7FE002803
:10189800F2D0092079B0F0BD6846FFF70FFF062C9B
:1018A800F7D131462846FFF73FFF00BF10B4144672
:1018B8008461DC6BC16000221C64194610BC53E7CC
:1018C80070B54369C6680B64AEB90A460369044635
:1018D8000D46014602209847072805D008280FD151
:1018E80029462046FFF720FF3046296CFFF71AFFEC
:1018F800281D00F037FB0122FFF736FF09F0A4FA94
:1019080009F0A2FAC2682AB1D1F83CC00022C1F895
:1019180040C029E796E700BF704700BF83680146CB
:101928000BB1012018477047012912D009D873B9A3
:101938000F2A0CD800EB820042681846009B1A60F8
:1019480070470339012994BF012002207047022003
:1019580070470846704700BF002300B585B00A46A7
:1019680003A900911946FFF7DFFF039805B05DF85A
:1019780004FB00BF012912D009D873B90F2A0CD86B
:10198800009900EB820209681846516070470339D4
:10199800012994BF012002207047022070470846A1
:1019A800704700BF002310B584B003AC03920094C5
:1019B8000A461946FFF7DEFF04B010BD70B54FF0B8
:1019C800FF36D36BADF50E7D13640DF15C0E02F19D
:1019D800040C05460C46BCE80F00AEE80F00BCE856
:1019E8000F00AEE80F00BCE80F00AEE80F009CE85F
:1019F8000F008EE80F00169612E00C2116A86A4612
:101A0800FFF7D0FF214616A8A84778B969460820ED
:101A1800049B16AA98470528064608D0092805D029
:101A280068462699FFF7FAFD0028E6D0092616A889
:101A3800FFF744FE30460DF50E7D70BD2DE9F04FE1
:101A48001E46CC6C89B054F8043B0D46174600F08E
:101A580003080694002E79D002228DF81C201A0C57
:101A68008DF81D201B04D2B2059304EB82042B6D64
:101A7800B8F1020F08BFAC6B13F001030CD0384665
:101A880005A900F071FB18B9082009B0BDE8F08F6E
:101A9800092009B0BDE8F08FD4F800A0BAF1000F12
:101AA800EDD0019300F008030293022E4AD0B4F857
:101AB80000A0B4F802900434AA6C0F21384629F02B
:101AC800010B9344FFF748FF834539D82AF00102F8
:101AD8005A44824294BF002001204FEA490303F090
:101AE80002030AF0010A43EA0A03012B49D0022B38
:101AF80032D0002BCCD1B8F1000F02D0002840F032
:101B0800CE800434D4F800A0BAF1000FCDD1384605
:101B180005A900F029FB0028BAD1019B002BB3D0FE
:101B28000F213846FFF718FF0E2102463846FFF707
:101B380039FF38460F216A4AFFF734FF0720A8E724
:101B48000020CAE7D4F804900834B5E71B020593CF
:101B58000323ADF81C308AE7236823F0004BB8F163
:101B6800000F45D128B1029A002A5CD0BBF1000FC2
:101B780074D0002B00DA04340BF1010B04EB8B0456
:101B8800C0E7B8F1000F19D1B0B163682268991C99
:101B98004FEAD2723FF47CAF05F15801013304914A
:101BA80000F09180201DFFF7B7FD04AB01462846E1
:101BB800AFF3008000285CD10834A3E70D21384634
:101BC800D5F82090FFF7C8FE8145F5D1AB6A9C4255
:101BD800F2D12046FFF7D4FC0F2102463846FFF722
:101BE800E1FE38462A460021FFF7DCFE072050E7D1
:101BF8000D213846D5F82090FFF7AEFE814501D07B
:101C08002368B6E7AB6A9C42FAD104230022C5E9EF
:101C18000B23E318C5F828B06B632368002B5ADB45
:101C280001230193A8E705F15803CDF80C809146EC
:101C3800B04604F1040A1E460EE050460496FFF72B
:101C48006BFD0022014604AB284609F101090AF19F
:101C5800040AAFF30080E8B9D945EED10D21384622
:101C6800FFF77AFE0346049A0620C5E909242B6289
:101C78000FE781460D213846FFF76EFEB9F1020FD6
:101C8800286225D12B46049A43F82C2F6B62062034
:101C9800AC62FEE646462368DDF80C8069E720461C
:101CA800FFF76EFC02460434AC6328461446AFF3D3
:101CB800008000283FF4ECAE384622460F21FFF79B
:101CC80071FE0720E5E60D213846FFF745FE28623C
:101CD800049B6B62DBE70BF1010004EB800079E702
:101CE800000000000023A9E60123A7E60223A5E6D9
:101CF8002DE9F043064615461C46C3B0042900F2F8
:101D0800B880DFE801F09C56B62D0300002C40F0A7
:101D1800B080102A00F2AD800368D80600F1F18087
:101D280020AF384600F090F9012438460023B16B03
:101D380004FA03F22A4203F1010305D00A4652F8D5
:101D480004CB1146C0F800C0042B00F10400EFD109
:101D58003846B16300F06EF9002043B0BDE8F08367
:101D6800032C40F0868094B204EB1243102B4FEA08
:101D780012457ED803681F0700F1CB8020AF384694
:101D880000F036F9B26B07EBC50154B10B4601EB15
:101D9800C401D01AE4001D5843F8045B8B42FAD101
:101DA80022443846B26300F001F9002043B0BDE890
:101DB800F083012C4FEA124895B256D0052C58D121
:101DC80008EB0509B9F1200F53D8B8F10F0F73D9F3
:101DD800A946002D40F08480B36B65B320AF4FF067
:101DE800000907EBC807043F03EBC50553F8041BBC
:101DF800AB4247F8041FF9D1B9F1000F0FD06F4675
:101E08004146102938BF102107EBC101843903EB83
:101E1800C90553F8040BAB4241F8040FF9D1012C62
:101E28007FD0B8F10F0FB56342D9B9F1000F02D0D6
:101E3800684600F0B3F8002043B0BDE8F083C4B9A9
:101E480023460124826B371DA8B204FA03F101422C
:101E58001CBF52F8041B47F823100133102BF4D190
:101E680015F40050E7D1B26304E008EB0503102B2A
:101E780003D9022043B0BDE8F083B8F10F0FF8D8BA
:101E88003368DA0706D5304623F0030340F8483BA9
:101E980000F078F820AF384600F074F8B36B002DE6
:101EA8009DD11D4604353846B56300F067F8C2E792
:101EB80020A800F06BF8B8E7B9F1100F3FD9A9F1E5
:101EC80010093368D90708D5304623F0010343F0D9
:101ED800020340F8483B00F05DF8B9F1000F31D03B
:101EE80033685A071FD4B8F10F0F24D96F46C8F1C9
:101EF8001005384600F056F8002DB36B80DD20AF92
:101F08006FE723F01003336006F5E87000F09CF8E3
:101F180006E723F00803036000F5A87000F068F8EE
:101F28002CE720AFBEE7304623F0040340F8D03B4F
:101F380000F038F8D7E720A800F02CF8D6E74FF0E3
:101F48000009BEE7B8F10F0F3FF646AF20AF38469D
:101F580000F020F8B36B002D7FF441AF384600F055
:101F680015F868E700F1340191E838009C46A64668
:101F78004CF8045D90E8FF0FE54600BD90EC210B9E
:101F8800704700BF80EC210B704700BF90EC200B1E
:101F9800704700BF80EC200B704700BFD0EC200BCF
:101FA800704700BFC0EC200B704700BFF0EC020187
:101FB800F0EC0211F0EC0221F0EC0231F0EC0241FD
:101FC800F0EC0251F0EC0261F0EC0271F0EC0281ED
:101FD800F0EC0291F0EC02A1F0EC02B1F0EC02C1DD
:101FE800F0EC02D1F0EC02E1F0EC02F1704700BF36
:101FF800E0EC0201E0EC0211E0EC0221E0EC02313D
:10200800E0EC0241E0EC0251E0EC0261E0EC02712C
:10201800E0EC0281E0EC0291E0EC02A1E0EC02B11C
:10202800E0EC02C1E0EC02D1E0EC02E1E0EC02F10C
:10203800704700BFB0FC0181B0FC0191B0FC01A168
:10204800B0FC01B1704700BFA0FC0181A0FC019168
:10205800A0FC01A1A0FC01B1704700BFEC4600B58F
:102068002DE900502DE9FF1F4FF000032DE90C006A
:1020780001A9FFF7E7FBDDF840E012B0704700BFA9
:10208800EC4600B52DE900502DE9FF1F4FF0000385
:102098002DE90C0001A9FFF713FCDDF840E012B0B0
:1020A800704700BFEC4600B52DE900502DE9FF1F31
:1020B8004FF000032DE90C0001A9FFF723FCDDF820
:1020C80040E012B0704700BFEC4600B52DE9005063
:1020D8002DE9FF1F4FF000032DE90C0001ABFFF7BE
:1020E800E5FBDDF840E012B0704700BFEC4600B5F4
:1020F8002DE900502DE9FF1F4FF000032DE90C00DA
:1021080001AAFFF75BFCDDF840E012B0704700BFA2
:10211800027A03467AB9427AA2B14FF0030C4168B9
:10212800013A427208680A1D5A60020283F808C020
:10213800000E1A6070470068013A1A7202021A60AB
:10214800000E7047B0207047002300B585B003A982
:1021580000910C221946FFF7E7FB039805B05DF8DC
:1021680004FB00BFF0E700BF2DE9F0434FF0000883
:1021780005460E4685B03046FFF7CAFFB02804462C
:1021880000F0BA80070620D500F0F003802B4DD070
:10219800902B36D0A02B60D0B02B73D0C02B00F082
:1021A8008A8000F0F803D02B0BD100F0070201322F
:1021B80005230121284642F40022FFF799FD002853
:1021C800D9D0092005B0BDE8F0838300DBB21F1D1C
:1021D80000230DF10C0919460D222846CDF8009070
:1021E800FFF7A2FB039B60064CBFDF1BFF18002311
:1021F8000D2228461946CDF800900397FFF7BAFB41
:10220800B9E700F00D030D2BDBD0002303AF19460F
:1022180000F00F0200972846FFF786FB00230D22E7
:10222800284619460097FFF7A5FBA4E73046FFF7B5
:102238006FFF24022043B0F5004FC2D000230401F1
:1022480019462846A2B2FFF753FD0028B9D114F465
:10225800004F18BF4FF001088DE7C3434FF47F626A
:1022680003F007031A410023010702F47F6248BF05
:1022780042F4804228461946FFF73AFD00283FF409
:102288007AAF9EE7B1283CD0B22800F0B080B328DE
:102298004AD000F0FC03B42B93D0012300F00702CE
:1022A8001A442846194642F40022FFF721FD002867
:1022B8003FF461AF85E7C6284FD0C72861D000F04A
:1022C800F803C02B70D0C8287CD0C9287FF479AF18
:1022D8003046FFF71DFF0523024601212846140357
:1022E80002F00F0204F470240A442243FFF700FDB1
:1022F80000283FF440AF64E7B8F1000F1CD000207D
:1023080060E73046FFF704FF024600283FF459AF64
:1023180010F0F0037FF455AF19462846FFF7E8FCA4
:1023280000283FF428AF4CE73046FFF7F1FE0123C1
:10233800024619462846D2E703AC43460E224146D8
:1023480028460094FFF7F0FA43460F2228464146F4
:102358000094FFF70FFB404634E73046FFF7D8FEFE
:1023680002460323140302F00F0204F4702401321E
:10237800284619462243FFF7BBFC00283FF4FBAE72
:102388001FE73046FFF7C4FE024600283FF419AFA6
:1023980010F0F0037FF415AF04212846FFF7A8FCDE
:1023A80000283FF4E8AE0CE7032300F00F020132E7
:1023B8002846194642F42022FFF79AFC00283FF4E9
:1023C800DAAEFEE63046FFF7A3FE0246012102F030
:1023D800F00402F00F0210340A440523284642EAAA
:1023E8000432FFF785FC00283FF4C5AEE9E6002378
:1023F8000DF10C090D2219462846CDF80090FFF77B
:1024080093FA3046FFF784FE02064FF002040CD51B
:10241800039B00F07F00A040184403903046FFF76C
:1024280077FE030604F10704F2D4039B00F07F0251
:10243800A24003F501731A440023039228460D2293
:102448001946CDF80090FFF795FA94E60B464FF041
:10245800030C00B5C26C1846536885B00832029266
:1024680001A91A0E1B028DF80CC001938DF80D20DE
:10247800FFF77AFE05B05DF804FB00BF08B5FFF76B
:1024880071FE806C08BD00BF08B5FFF76BFEC06C1D
:10249800C379023300EB830008BD00BF704700BF5B
:1024A800844641EA000313F0030349D1403A23D399
:1024B8000B6803604B6843608B688360CB68C360BC
:1024C8000B6903614B6943618B698361CB69C361A4
:1024D8000B6A03624B6A43628B6A8362CB6AC3628C
:1024E8000B6B03634B6B43638B6B8363CB6BC36374
:1024F80040304031403ADBD230320BD30B680360B6
:102508004B6843608B688360CB68C36010301031C0
:10251800103AF3D20C3205D351F8043B40F8043B8F
:10252800043AF9D2043208D0D2071CBF11F8013B93
:1025380000F8013B01D30B8803806046704700BF59
:10254800082A13D38B07B1D010F00303AED0C3F120
:102558000403D21ADB071CBF11F8013B00F8013B4A
:10256800A4D331F8023B20F8023B9FE7043AD9D3C1
:10257800013A11F8013B00F8013BF9D20B780370DE
:102588004B7843708B788370604670474FEA4102FE
:1025980012F5001215D211D56FF47873B3EB6252AD
:1025A80012D94FEAC12343F0004343EA505311F0D4
:1025B800004F23FA02F018BF404270474FF0000066
:1025C800704750EA013005D111F0004008BF6FF0A4
:1025D800004070474FF00000704700BF53B94AB938
:1025E800002908BF00281CBF4FF0FF314FF0FF3013
:1025F800FFF754BFADF1080C6DE904CEFEF756FEA7
:10260800DDF804E0DDE9022304B0704770B5064642
:10261800DD2383702323C3732823C37008203071FC
:102628000123B371F823F371FB23F372E723B37229
:102638006A4BC6F8A4310024A6F8A841C6F8B831F8
:102648000422A6F8BC21C6F8CC31A6F8D001C6F8F9
:10265800E0310C23A6F8E4316149C6F8F411A6F874
:10266800F841C6F80812A6F80C22C6F81C12A6F8FB
:102678002002C6F83012A6F834325A49C6F8441275
:10268800A6F84842C6F85812A6F85C22C6F86C129A
:10269800A6F87002C6F88012A6F884325249C6F825
:1026A8009412A6F89842C6F8A812A6F8AC224F4A87
:1026B800C6F8BC22A6F8C042C6F8D022A6F8D43282
:1026C80022E0042B4BD0082B68D030575A30FDF746
:1026D800F9FE0022464BFEF789F80022454BFDF72C
:1026E800A5FD0022444BFEF781F80022434BFDF77D
:1026F80053FF04EB840306EB8303D3F8A4311D686E
:10270800FEF7FAF9286401340F2C66DC04EB840523
:1027180006EB8505B5F8A811D5F8A40107F0FCF972
:10272800B5F8A831002BCCD130575A30FDF7CAFE86
:1027380000222F4BFEF75AF800222E4BFDF776FDAC
:1027480000222D4BFEF752F800222C4BFDF724FFF8
:10275800D5F8A4311D68FEF7CFF96863D3E7305781
:102768005A30FDF7AFFE0022214BFEF73FF800225A
:10277800204BFDF75BFD00221F4BFEF737F80022C8
:102788001E4BFDF709FF04EB840306EB8303D3F824
:10279800A4311D68FEF7B0F9A863B4E730575A3082
:1027A800FDF790FE0022124BFEF720F80022114B95
:1027B800FDF73CFD0022104BFEF718F800220F4BE6
:1027C800FDF7EAFE04EB840306EB8303D3F8A43198
:1027D8001D68FEF791F9E86395E770BD480E002083
:1027E800900E0020D80E0020200F0020680F002037
:1027F800008056400000E03F0000344000409F4009
:1028080010B504464FF4C8720021103008F0A6FB3A
:10281800164B2361164B6361164BA361164BE3619C
:10282800164B2362164B6362164BA362164BE36288
:10283800164B2363164B6363164BA363164BE36374
:10284800164B2364002384F8A03184F8A13104F5E1
:10285800D2730F2205E0124999605A211973143373
:10286800013A002AF7DA204610BD00BFB01001086F
:102878001411010878110108DC110108401201083F
:10288800A81201080C13010870130108D4130108D9
:10289800381401089C140108001501086415010882
:1028A8000000B442704700002DE9F04106460025BB
:1028B80063E000213846FEF73BFC002840F08680A4
:1028C80000213846FEF752FC98B104EB840306EB6E
:1028D8008303D3F8AC8193F8B001FEF737FA414689
:1028E800FEF77EF901463846FEF736FC002840F030
:1028F800948000213846FEF71BFC002879D104EBB0
:10290800840806EB88083946D8F8AC01FEF76AF95E
:10291800C8F8AC0104EB840306EB8303B3F8A831D1
:10292800002B40F08880A70004EB840306EB8303A8
:10293800D3F8AC813057FEF709FA4146FEF752F951
:10294800FDF7D2FD00227C4BFDF750FF00227B4BA8
:10295800FDF76CFC00227A4BFDF748FF0022794B0B
:10296800FDF71AFE274406EB8707D7F8A4311C6841
:10297800FEF7C2F860630135EDB20D2D00F2DA8082
:102988002C4605EB850306EB8303D3F8B4710021CD
:102998003846FEF7C3FB0028EDD100213846FEF784
:1029A800E5FB002885D005EB850806EB880898F834
:1029B800B001FEF7CBF9D8F8AC11FEF7B9FB002847
:1029C8003FF477AF0022C8F8B421A3E704EB8408EA
:1029D80006EB880898F8B001FEF7B8F9D8F8AC11FA
:1029E800FEF7C4FB00283FF46BAF0022C8F8B421FF
:1029F80090E704EB840306EB8303D3F8AC8193F8E8
:102A0800B001FEF7A3F94146FEF7EAF80146384659
:102A1800FEF798FB00283FF472AF04EB840706EB3F
:102A2800870797F8B001FEF78DF9C7F8AC010123C5
:102A380086F8A1316EE7042B2AD0082B51D0A700C5
:102A480004EB840306EB8303D3F8AC813057FEF71D
:102A58007DF94146FEF7C6F8FDF746FD0022364BE4
:102A6800FDF7C4FE0022354BFDF7E0FB0022344B96
:102A7800FDF7BCFE0022334BFDF78EFD3C4406EB10
:102A88008404D4F8A4311C68FEF736F8206472E791
:102A9800A70004EB840306EB8303D3F8AC8130571B
:102AA800FEF754F94146FEF79DF8FDF71DFD00229B
:102AB800214BFDF79BFE0022204BFDF7B7FB0022C0
:102AC8001F4BFDF793FE00221E4BFDF765FD3C44AE
:102AD80006EB8404D4F8A4311C68FEF70DF8A06353
:102AE80049E7A70004EB840306EB8303D3F8AC8122
:102AF8003057FEF72BF94146FEF774F8FDF7F4FC62
:102B080000220D4BFDF772FE00220C4BFDF78EFBE9
:102B180000220B4BFDF76AFE00220A4BFDF73CFD35
:102B28003C4406EB8404D4F8A4311C68FDF7E4FFA8
:102B3800E06320E7BDE8F081008056400000E03FF8
:102B48000000344000409F402DE9F84304460D46FC
:102B580010461F468E0001EB810204EB820282F8C8
:102B6800B001D2F8AC81FEF7F1F84146FEF738F82B
:102B7800FDF7BAFC00220A4BFDF738FE804689466D
:102B88003846FDF79FFC42464B46FDF705FDFDF72D
:102B9800D3FF354404EB8504C4F8B401BDE8F883D9
:102BA80000804B40000000002DE9F84381460D46A7
:102BB8004FF000084446012704E02A445778303F84
:102BC800FFB20134284608F0C9FA2246A04269D962
:102BD800295D7329F1D023291ED05029F1D12B1951
:102BE8001B79202B38D029194979202944D030461F
:102BF800FDF758FC2EA3D3E90023FDF7CDFC0022F6
:102C08002D4BFDF711FBFDF777FF3B46C2B241465E
:102C18004846FFF799FFD4E72B199B78202B13D050
:102C28002919C9782029CCD12A4492F80180A8F121
:102C3800300808EB880803EB48085FFA88F8A8F121
:102C480030085FFA88F8BCE72A4492F80180A8F1B6
:102C580030085FFA88F8B4E72A445678A6F13001BC
:102C68009378303B03EB83035E00642303FB016628
:102C7800D3781E44303EBAE72A445678A6F130018C
:102C88009678303E642000FB06F64FF47A7000FB1D
:102C98000166D278303A02EB820206EB42061E4405
:102CA800303EA4E73146054808F0AAF9BDE8F883A4
:102CB8000AD7A3703D0AB73F00804640C8150108EF
:102CC80090F8A031032B09D0042B0BD0082B0CD083
:102CD8000C2B0ED0013380F8A0317047002380F808
:102CE800A031704780F8A0317047052380F8A031E3
:102CF8007047092380F8A0317047000000B587B0FD
:102D08004FF6FF730522D121A24805F0ABFF00283A
:102D1800F6D180238DF817304FF6FF730293012305
:102D280001930DF1170200926B22D021994805F00A
:102D380043FD0028F0D1642004F026FD4FF6FF7310
:102D48000522D121934805F08DFF0028F6D10023F4
:102D58008DF817304FF6FF730293012301930DF19D
:102D6800170200926B22D0218A4805F025FD002821
:102D7800F0D14FF6FF730522D121864805F072FF86
:102D88000028F6D118238DF817304FF6FF730293F9
:102D9800012301930DF1170200921B22D0217D48D7
:102DA80005F00AFD0028F0D14FF6FF730522D12166
:102DB800784805F057FF0028F6D100238DF8173022
:102DC8004FF6FF730293012301930DF1170200924E
:102DD8001C22D0216F4805F0EFFC0028F0D14FF6F7
:102DE800FF730522D1216B4805F03CFF0028F6D17E
:102DF80000238DF817304FF6FF73029301230193D8
:102E08000DF1170200923822D021624805F0D4FC57
:102E18000028F0D14FF6FF730522D1215D4805F057
:102E280021FF0028F6D14FF6FF7302930123019387
:102E38000DF1170200926A22D021564805F0BCFC19
:102E48000028F0D14FF6FF730522D121514805F033
:102E580009FF0028F6D14FF6FF730293012301936F
:102E68000DF1170200922322D0214A4805F0A4FC54
:102E78000028F0D14FF6FF730522D121454805F00F
:102E8800F1FE0028F6D13221012001F08AF88DF8F0
:102E980017004FF6FF730293012301930DF11702F8
:102EA80000921922D0213B4805F086FC0028F0D179
:102EB8004FF6FF730522D121364805F0D3FE0028CE
:102EC800F6D104238DF817304FF6FF7302930123D0
:102ED80001930DF1170200921A22D0212D4805F016
:102EE8006BFC0028F0D14FF6FF730522D121294849
:102EF80005F0B8FE0028F6D14FF6FF7302930123C0
:102F080001930DF1170200927522D121214805F095
:102F180005FD0028F0D19DF81730682B02D007B0C6
:102F28005DF804FB4FF6FF730522D121194805F01F
:102F380099FE0028F6D101238DF817304FF6FF735C
:102F48000293012301930DF1170200926B22D02105
:102F5800104805F031FC0028F0D14FF6FF73052228
:102F6800D1210C4805F07EFE0028F6D100238DF80B
:102F780017304FF6FF730293012301930DF11702E7
:102F880000926C22D021034805F016FC0028F0D1ED
:102F9800C5E700BFF00D0020012800D070474FF6AC
:102FA800FF739942FAD110B5044C2046FFF728FC6C
:102FB800034A0449204607F0B3F910BD480A002027
:102FC80000000020AD28000810B5FFF797FE02F0BA
:102FD8008BFC294C204603F035FC204603F074FC9A
:102FE8002649204603F08EFF254B14221146204621
:102FF80003F048FF234B32223C21204603F042FFD6
:10300800204603F06EFC204C2046FFF7FFFA002311
:1030180084F8A03121692046FFF7C6FD4FF0FF3341
:1030280005221A491A4806F052FF23E00134272CDA
:1030380015DC1848021D811C00F0D2FF1648021D3D
:10304800811C01F003F8154800F10802011D02F087
:103058009BFC272CEAD1124806F020FBE6E7114C2E
:1030680014222146104807F03EF914222146084848
:1030780007F039F90024DAE72C0D00202C23010889
:10308800CC150108D4150108480A0020DC150108F0
:10309800B00F0020180A0020400A0020340A00203F
:1030A800480E0020200A00203810002010B50368C0
:1030B800334A934203D0334A934239D010BD324B3E
:1030C8001B78552B02D1304B1B791BB92F4806F0C2
:1030D800E5FAF3E72E4C204603F0F6FB2D4920468F
:1030E80003F010FF2C4B14220021204603F0CAFEE7
:1030F800204603F0F6FB294C4FF0FF33012294F8E9
:10310800A011274806F0E3FE4FF0FF33012294F8A0
:10311800A011244806F0DBFE94F8A031043354F8DB
:1031280023102046FFF740FD184806F0F3FAC5E7DC
:10313800154B1B78552B02D1134B1B791BB9134820
:1031480006F0ACFABAE7154C4FF0FF33012294F8B9
:10315800A011134806F0BBFE4FF0FF33012294F88C
:10316800A011104806F0B3FE94F8A031043354F8C7
:1031780023102046FFF718FD044806F0CBFA9DE718
:103188000048004000380140200A0020480E002076
:103198002C0D002018380108E4150108480A002001
:1031A800F40F00207C10002030B58DB006F0B2FA84
:1031B800334C204603F088FB3249204603F0A2FE38
:1031C800314D2868FDF7DCFF0A2209A907F07AFECD
:1031D8006868FDF7D5FF0A2203A907F073FEA868FF
:1031E800FDF7CEFF0A2206A907F06CFE0A226946FF
:1031F800264B186807F066FE254B1422002120464E
:1032080003F040FE09AB14225321204603F03AFE96
:10321800204B28220021204603F034FE06AB28224A
:103228005321204603F02EFE1B4B3C220021204652
:1032380003F028FE03AB3C225321204603F022FE74
:10324800204603F04EFB154C2046FFF72DFB94F863
:10325800A1312BB90D4A1368013313600DB030BD8D
:10326800002384F8A1312046FFF72AFD94F8A03105
:10327800043354F823102046FFF796FCEAE700BF12
:103288002C0D002070310108340A0020140A002097
:10329800EC150108F4150108F8150108480A002082
:1032A80008B54FF6FF710120FFF776FE08BD000054
:1032B80000B585B000230193029303931148124A85
:1032C80002608360037303754FF46022C261436038
:1032D8000123036104F03AFB68B904230193012335
:1032E80002930023039301A9064804F061FA28B960
:1032F80005B05DF804FB00F0BDF8EEE700F0BAF8A1
:10330800F6E700BFC00D00200024014000B587B0DB
:10331800002302930393049305930268114B9A4286
:1033280002D007B05DF804FB03F56C439A6942F4D8
:1033380000729A619A6902F400720092009A9A697E
:1033480042F004029A619B6903F004030193019B14
:10335800F02302930323039302A9034804F0CCFC4F
:10336800DFE700BF002401400008014084B0134B90
:103378009A6942F020029A619A6902F0200200924A
:10338800009A9A6942F004029A619A6902F004026A
:103398000192019A9A6942F008029A619A6902F0C8
:1033A80008020292029A9A6942F010029A619B6995
:1033B80003F010030393039B04B07047001002400E
:1033C80008B50B480B4B03600B4B4360002383602D
:1033D800C3604FF48042026143618361C361036249
:1033E80005F050F800B908BD00F044F8FBE700BF4D
:1033F800F00D002000540040A086010010B586B0F2
:10340800002302930393049305930268154B9A4291
:1034180001D006B010BD144CA36943F00803A361A2
:10342800A36903F008030093009B4FF440730293D1
:10343800122303930323059302A90C4804F05CFCB0
:103448000B4A536843F0E06343F002035360E369B7
:1034580043F40013E361E36903F400130193019B50
:10346800D7E700BF0054004000100240000C0140A4
:103478000000014072B6FEE700B597B0282200218F
:103488000CA807F06BFD00230793089309930A9390
:103498000B930193029303930493059306930122DC
:1034A8000C924FF480330D931092022213921493CE
:1034B8004FF4E01315930CA805F0B4FCC8B90F231A
:1034C800079302210891002309934FF480620A921E
:1034D8000B9307A805F0E6FE68B9022301934FF4A1
:1034E8000043039301A805F0B9FF30B917B05DF8A0
:1034F80004FBFFF7BFFFFFF7BDFFFFF7BBFF08B5F2
:1035080004F01EF9FFF7B8FFFFF730FFFFF758FF89
:1035180000F0D8F900F04EFA00F0A8FA00F004FB29
:1035280000F0CEFB00F0E6FB00F0FEFBFFF7C0FE6C
:1035380000F046FB00F0AAFBFFF746FDFEE700009F
:1035480082B00E4B9A6942F001029A619A6902F0C0
:1035580001020092009ADA6942F08052DA61DB696E
:1035680003F080530193019B054A536823F0E063FD
:1035780043F00073536002B0704700BF0010024070
:1035880000000140FEE7FEE7FEE7FEE7FEE77047C2
:103598007047704708B504F0E5F808BD08B502485B
:1035A80006F0D5F808BD00BF480E002008B502484F
:1035B80006F07CFD08BD00BFB00F002008B502482A
:1035C80006F074FD08BD00BFF40F002008B50248DE
:1035D80006F06CFD08BD00BF3810002001207047C0
:1035E80008B507F045FC162303604FF0FF3008BD0F
:1035F80008B54FF0FF31FFF7F3FFFEE770B50C4653
:103608001646002506E0AFF30080214601F8010BBD
:1036180001350C46B542F6DB304670BD70B50C4638
:103628001646002504E014F8010BAFF300800135BD
:10363800B542F8DB304670BD4FF0FF3070474FF4AD
:1036480000534B60002070470120704700207047EE
:1036580010B503460C4A0D490D48006840B10C48A6
:1036680000680344521A934206D8094A136010BDF1
:103678000748084C0460F2E707F0FAFB0C230360E4
:103688004FF0FF30F3E700BF00C000200004000047
:10369800440E0020A81500207047000000B587B030
:1036A8000368284A934216D0B3F1804F26D0264AA1
:1036B800934231D0254A934239D0254A934228D1A2
:1036C800244B9A6942F400529A619B6903F40053AF
:1036D8000593059B1DE01F4B9A6942F400629A61AD
:1036E8009B6903F400630193019B002201211920C7
:1036F80004F0D2F9192004F007FA0AE003F50433BC
:10370800DA6942F00102DA61DB6903F0010302932E
:10371800029B07B05DF804FB0E4BDA6942F0020227
:10372800DA61DB6903F002030393039BF1E7094BBA
:10373800DA6942F00802DA61DB6903F008030493EE
:10374800049BE6E7002C014000040040000C004008
:10375800003401400010024010B58AB000230693DF
:1037680007930893099303684D4A93420DD0B3F128
:10377800804F1FD04B4A93424BD04B4A934265D05F
:103788004A4A934276D00AB010BD494B9A6942F032
:1037980004029A619B6903F004030093009B4FF4B1
:1037A8007063069302230793099306A9414804F01E
:1037B800A3FAE8E703F504339A6942F008029A612C
:1037C8009A6902F008020192019A9A6942F0040289
:1037D8009A619B6903F004030293029B40F6084335
:1037E800069302240794099406A9334804F084FA3E
:1037F8004FF4004306930794099406A92D4804F052
:103808007BFA2E4A536843F0E06343F440735360F5
:10381800B9E7274B9A6942F008029A619B6903F05D
:1038280008030393039B3323069302230793099307
:1038380006A9214804F060FA204A536823F440633B
:1038480043F0E06343F4006353609CE7184B9A69C4
:1038580042F004029A619B6903F004030493049BF9
:103868000323069302230793099306A9114804F03A
:1038780043FA88E70E4B9A6942F010029A619B69F5
:1038880003F010030593059B4FF41073069302236E
:103898000793099306A90A4804F02EFA73E700BFB4
:1038A800002C014000040040000C0040003401409E
:1038B8000010024000080140000C014000000140D7
:1038C8000010014010B592B000241094119409948E
:1038D8000A940B940C940D940E940F942022214674
:1038E80001A807F03BFB3148314B036040F2CF237E
:1038F8004360846040F2CF73C360046144618461B3
:1039080006F02EF800283CD100231093119310A93B
:10391800264806F07BF9002836D160230993002257
:103928000A920B920C920D920E920F9209A91F48BF
:1039380006F07AF858BB042209A91C4806F074F866
:1039480040BB082209A9194806F06EF828BB0C22CA
:1039580009A9164806F068F810BB002301930293E2
:103968000393049305934FF400520692089301A918
:103978000E4806F089F9B0B90C48FFF7EDFE12B011
:1039880010BDFFF777FDBFE7FFF774FDC5E7FFF749
:1039980071FDD0E7FFF76EFDD3E7FFF76BFDD6E7C4
:1039A800FFF768FDD9E7FFF765FDE5E7480E00205A
:1039B800002C014000B58BB00023089309930193B4
:1039C80002930393049305930693079326484FF0B5
:1039D8008042026040F2CF224260836040F2CF72A0
:1039E800C2600361836105F0BBFF58BB00230893E5
:1039F800099308A91C4806F009F930BB6023019314
:103A0800002202920392059201A9174806F00CF8C9
:103A1800F0B904220DEB0201134806F005F8D0B9FD
:103A2800082201A9104805F0FFFFB8B90C2201A926
:103A38000D4805F0F9FFA0B90B48FFF78DFE0BB054
:103A48005DF804FBFFF716FDD0E7FFF713FDD5E798
:103A5800FFF710FDDDE7FFF70DFDE1E7FFF70AFDD2
:103A6800E4E7FFF707FDE7E7900E002000B58BB00D
:103A780000230893099301930293039304930593F6
:103A8800069307932648274A026040F2CF224260F5
:103A9800836040F2CF72C2600361836105F060FF0A
:103AA80058BB00230893099308A91D4806F0AEF8EF
:103AB80030BB60230193002202920392059201A970
:103AC800174805F0B1FFF0B904220DEB02011448C4
:103AD80005F0AAFFD0B9082201A9114805F0A4FFF2
:103AE800B8B90C2201A90E4805F09EFFA0B90C48F0
:103AF800FFF732FE0BB05DF804FBFFF7BBFCD0E725
:103B0800FFF7B8FCD5E7FFF7B5FCDDE7FFF7B2FC38
:103B1800E1E7FFF7AFFCE4E7FFF7ACFCE7E700BF3E
:103B2800D80E00200004004000B58BB00023089395
:103B380009930193029303930493059306930793C0
:103B48001D481E4A026040F2CF224260836040F264
:103B5800CF72C2600361836105F002FFF8B90023E8
:103B68000893099308A9144806F050F8D0B96023BF
:103B78000193002202920392059201A90E4805F0D2
:103B880053FF90B904220DEB02010B4805F04CFFDE
:103B980070B90948FFF7E0FD0BB05DF804FBFFF7CB
:103BA80069FCDCE7FFF766FCE1E7FFF763FCE9E7A0
:103BB800FFF760FCEDE700BF200F0020000C00407D
:103BC80010B592B000241094119409940A940B949F
:103BD8000C940D940E940F942022214601A807F00E
:103BE800BDF92848284B036040F2CF234360846026
:103BF80040F2CF73C36004614461846105F0B0FE94
:103C0800002830D100231093119310A91D4805F006
:103C1800FDFF00282AD16023099300220A920B9203
:103C28000C920D920E920F9209A9164805F0FCFE0F
:103C3800F8B90C2209A9134805F0F6FEE0B90023EB
:103C4800019302930393049305934FF40052069251
:103C5800089301A90B4806F017F880B90948FFF73F
:103C68007BFD12B010BDFFF705FCCBE7FFF702FCA8
:103C7800D1E7FFF7FFFBDCE7FFF7FCFBDFE7FFF728
:103C8800F9FBEBE7680F00200034014008B50A484B
:103C98000A4B03604FF4E133436000238360C36041
:103CA80003610C2242618361C36106F0E1F800B947
:103CB80008BDFFF7DFFBFBE77C1000200050004049
:103CC80008B50A480A4B03604FF4E1334360002308
:103CD8008360C36003610C2242618361C36106F0A3
:103CE800C7F800B908BDFFF7C5FBFBE7B00F002018
:103CF8000038014008B50A480A4B03604FF4E13325
:103D0800436000238360C36003610C2242618361C6
:103D1800C36106F0ADF800B908BDFFF7ABFBFBE7E0
:103D2800F40F00200044004008B50A480A4B03601D
:103D38004FF4E133436000238360C36003610C22C6
:103D480042618361C36106F093F800B908BDFFF7CB
:103D580091FBFBE7381000200048004030B58FB0D9
:103D680000230A930B930C930D930368704A9342B4
:103D78000BD0704A934239D06F4A93426DD06F4A44
:103D8800934200F09A800FB030BD6D4BDA6942F46F
:103D98008012DA61DA6902F480120192019A9A6952
:103DA80042F010029A619A6902F010020292029A95
:103DB8009A6942F020029A619B6903F020030393F9
:103DC800039B4FF480530A9302230B9303230D9311
:103DD8000AA95C4803F090FF04230A9300230B937D
:103DE8000C930AA9584803F087FFCCE7544B9A690B
:103DF80042F480429A619A6902F480420492049AD9
:103E08009A6942F008029A619B6903F008030593D6
:103E1800059B40230A9302230B9303230D934B4DD9
:103E28000AA9284603F068FF80230A9300240B940C
:103E38000C940AA9284603F05FFF454A536843F0EB
:103E4800E06343F00403536022462146252003F033
:103E580023FE252003F058FE95E7394BDA6942F432
:103E68000032DA61DA6902F400320692069A9A6937
:103E780042F004029A619B6903F004030793079BCD
:103E880004230A9302230B9303230D93314D0AA9AC
:103E9800284603F031FF08230A9300240B940C945E
:103EA8000AA9284603F028FF22462146262003F0C7
:103EB800F3FD262003F028FE65E7214BDA6942F47A
:103EC8008022DA61DA6902F480220892089A9A69F3
:103ED80042F010029A619B6903F010030993099B51
:103EE8004FF480630A9302230B9303230D93154D1C
:103EF8000AA9284603F000FF4FF400630A93002440
:103F08000B940C940AA9284603F0F6FE104A53684D
:103F180023F0300343F0E06343F01003536022467C
:103F28002146272003F0B8FD272003F0EDFD2AE7FE
:103F38000050004000380140004400400048004064
:103F4800001002400010014000140140000C014024
:103F580000000140000801400C480D490D4A0023AB
:103F680002E0D458C4500433C4188C42F9D30A4A26
:103F78000A4C002301E013600432A242FBD3FFF78E
:103F88008BFB06F07BFFFFF7BAFA704700000020B2
:103F9800F8090020E8460108F8090020A4150020C7
:103FA800FEE7032905D9B1F57A7F03D94FF47A7171
:103FB80000E00421012803D0082809D018467047DA
:103FC8004FF47A7393FBF1F3DBB2013BDBB2F5E715
:103FD8004FF4FA5292FBF1F3DBB2013BDBB2EDE7AF
:103FE80070B586B006460D4614464FF6FF73052297
:103FF800D121154804F036FE0028F6D14FF6FF739C
:1040080002930623019304AB009301233B22D121A1
:104018000D4804F083FC0028F0D19DF810209DF88D
:10402800113043EA022333809DF812209DF81330A3
:1040380043EA02232B809DF814209DF8153043EAAB
:104048000223238006B070BDF00D002070B586B045
:1040580006460D4614464FF6FF730522D121154832
:1040680004F000FE0028F6D14FF6FF7302930623F2
:10407800019304AB009301234322D1210D4804F09E
:104088004DFC0028F0D19DF810209DF8113043EA2E
:10409800022333809DF812209DF8133043EA02234F
:1040A8002B809DF814209DF8153043EA02232380C5
:1040B80006B070BDF00D00202DE9F04184B08046B7
:1040C8000F4616461D464FF6FF730522D1210B48B1
:1040D80004F0C8FD0028F6D14FF6FF74029401964B
:1040E800009501233A4608FA03F1044804F064FBFA
:1040F8000028F1D104B0BDE8F08100BFF00D002028
:104108002DE9F04184B080460F4616461D464FF60D
:10411800FF730522D1210B4804F0A4FD0028F6D135
:104128004FEA48014FF6FF74029401960095012367
:104138003A461943034804F0F1FB0028F0D104B0D3
:10414800BDE8F081F00D0020F0B583B007462C4B98
:10415800586801AB04220D210078FFF7D1FF002831
:104168004BD104469DF80420D21002F01C029DF8A1
:104178000710C1F301131A438DF800209DF805209C
:10418800D21002F01C02C1F381031A438DF80120FA
:104198009DF80630DB1003F01C0301F003010B430C
:1041A8008DF8023018E007EB8405164B47F82430E9
:1041B80004E015492868FCF71DFE286006F108038D
:1041C8000DEB030212F8083C013BDBB202F8083C95
:1041D800002BEED10134E4B2022C0BD8264604F1B0
:1041E80008036B4413F8083C002BDCD1002347F884
:1041F8002430EFE7002003B0F0BD0720FBE700BF45
:10420800140000207B14AE3E1D5A843F2DE9F04374
:1042180085B08146884601A8FFF796FF00273C46EF
:104228000DE021493046FCF783FF20B91F4930468D
:10423800FCF79CFF10B10123A3401F430134022C5B
:104248002EDCA50059F8240058F82430C01A00289C
:10425800B8BF4042FCF77AFD4FF05E51FCF7CAFD4B
:10426800064605F110030DEB030555F80C5C00211B
:104278002846FCF753FF0028D3D129463046FCF7DF
:104288006DFE4FF07E51FCF7ABFC20F00040084972
:10429800FCF76CFF0028D1D00123A3401F43CDE7D2
:1042A800384605B0BDE8F0839A99993E3333733F99
:1042B800295C0F3E2DE9F04182B007468846374B0E
:1042C800586801AB03220D210078FFF719FF002879
:1042D8005FD19DF8043003F01F038DF804309DF87A
:1042E800053003F01F038DF805309DF8063003F004
:1042F8001F038DF806300026344626E02849FCF7CF
:1043080079FD04F108030DEB030212F8043C013BAC
:10431800DBB202F8043C002BF0D101462846FCF73A
:104328001DFE4FF07E51FCF75BFC20F000401D495C
:10433800FCF71CFF40B10123A3401E4304E01A48C8
:10434800DFE70123A3401E430134022C22DC57F887
:10435800240058F82430C01A0028B8BF4042FCF79F
:10436800F5FC4FF05E51FCF745FD054604F10803E6
:104378006B4413F8043C002BE1D10C49FCF7D8FE40
:104388000028DED10A492846FCF7F0FE0028DBD0D9
:10439800D7E70726304602B0BDE8F08114000020B8
:1043A80054E3853F295C0F3E0000C84100002041CE
:1043B8000000D24200B583B0234B93F82430CBB130
:1043C800A0B102238DF807301F4B586819680DF10A
:1043D80007030122C97B0078FFF76EFE48BB9DF8F2
:1043E8000720194B5A7403B05DF804FB00238DF8BD
:1043F8000730E9E7144B9B7AF3B110B1124B5B7CA1
:10440800EBB990B101238DF807300F4B5868196844
:104418000DF107030122C97B0078FFF74DFE80B933
:104428009DF80720084B5A74DDE700238DF8073004
:10443800EBE74FF0FF30D6E74FF0FF30D3E700202F
:10444800D1E74FF0FF30CEE714000020F0B589B077
:1044580005460C46164601238DF8143000238DF8C6
:104468001530854B5868196805AB0222897C00789D
:10447800FFF722FE002840F0CE81C82003F084F91F
:1044880000238DF814307C4B5868196805AB01225D
:10449800C97B0078FFF710FE002840F0BF81764BFB
:1044A8005868196805AB012249790078FFF704FEBE
:1044B800002840F0B681704B5868196805AB012296
:1044C800897C0078FFF7F8FD002840F0AD816A4B41
:1044D8005868196805AB0122C97D0078FFF7ECFD23
:1044E800002840F0A481644B5868196805AB012284
:1044F80009790078FFF7E0FD002840F09B810C2344
:104508008DF814305C4B5868196805AB012209799D
:104518000078FFF7D1FD002840F08F810F2003F0CD
:1045280033F9554B9A6A527A8DF8142058681968ED
:1045380005AB012289780078FFF7BEFD002840F01E
:104548007F814D4B9A6A127A8DF814205868196841
:1045580005AB012249780078FFF7AEFD002840F04E
:104568007281002E79D0444B9B6A9B7A63F01F03BB
:104578008DF81430404B5868196805AB01228979C9
:104588000078FFF799FD002840F06081002E6AD07E
:10459800394B9B6ADB7A63F01F038DF81430364B76
:1045A8005868196805AB0122C9790078FFF784FDBE
:1045B800002840F04E81002E59D140238DF8143048
:1045C8002D4B5868196805AB012209790078FFF767
:1045D80073FD002840F0408178238DF81430264B75
:1045E8005868196805AB012249790078FFF764FD1E
:1045F800002840F03481322003F0C6F800238DF8FB
:1046080014301D4B5868196805AB012249790078A8
:10461800FFF752FD002840F02581174B58681968AC
:1046280005AB0222897A0078FFF76AFD0646002862
:1046380040F01B819DF814309DF8157047EA032758
:104648000E4BA3FB0737C7F3C7070023AB606B60AC
:104658002B60A360636023605CE0074B9B6A9B7AD6
:104668008DF8143086E718238DF8143097E7C820A2
:1046780003F08AF8A1E700BF14000020ABAAAAAA99
:104688009DF814309DF8151041EA032109B2ADF8E0
:1046980004109DF816309DF8172042EA032212B242
:1046A800ADF806209DF818009DF8193043EA00235C
:1046B8001BB2ADF8083020680144216061680A44E3
:1046C8006260A2681344A3609DF81A309DF81B101D
:1046D80041EA032109B2ADF80C109DF81C309DF891
:1046E8001D2042EA032212B2ADF80E209DF81E00EA
:1046F8009DF81F3043EA00231BB2ADF8103028683C
:104708000144296069680A446A60AA681344AB6076
:104718000136F6B2BE420ED2554B5868196805AB41
:104728000C22C97A0078FFF7EBFC0028A8D04FF0DC
:10473800FF3009B0F0BD296883220023080409145A
:10474800FCF764FD00263A463346FCF75FFD286017
:1047580069688322002308040914FCF757FD3A46C8
:104768003346FCF753FD6860A968832200230804D8
:104778000914FCF74BFD3A463346FCF747FDA860A1
:104788002068031400041946B3422DDBC00A3A46D8
:10479800334640EA4150C912FCF738FD2060606892
:1047A800031400041946002B24DBC00A3A4633469A
:1047B80040EA4150C912FCF729FD6060A068031463
:1047C80000041946002B1BDBC00A3A46334640EA70
:1047D8004150C912FCF71AFDA060002816DDA0F5AB
:1047E8008030A0600020A4E740F2FF72801843F1F7
:1047F8000001CBE740F2FF72801843F10001D4E7D3
:1048080040F2FF72801843F10001DDE700F58030C7
:10481800A06000208DE74FF0FF308AE74FF0FF30AF
:1048280087E74FF0FF3084E74FF0FF3081E74FF024
:10483800FF307EE74FF0FF307BE74FF0FF3078E73F
:104848004FF0FF3075E74FF0FF3072E74FF0FF3061
:104858006FE74FF0FF306CE74FF0FF3069E74FF03C
:10486800FF3066E74FF0FF3063E74FF0FF3060E757
:10487800140000207C4B9B7A002B00F0D48000B5FC
:1048880083B000238DF80730774B586819680DF10D
:1048980007030122C97B0078FFF70EFC002840F0CF
:1048A800C580714B586819680DF1070301224979D1
:1048B8000078FFF701FC002840F0BB806A4B58687D
:1048C80019680DF10703012209790078FFF7F4FB55
:1048D800002840F0B180644B93F82430002B52D06C
:1048E8000C238DF80730604B586819680DF10703E1
:1048F800012209790078FFF7DFFB002840F09F804C
:10490800322002F041FFC0238DF80730564B9B7AC6
:1049180013F0010F02D0E0238DF80730524B58688E
:1049280019680DF10703012209790078FFF7C4FB24
:10493800002840F087804C4B5B7C03B302238DF842
:104948000730494B586819680DF107030122C97BE4
:104958000078FFF7B1FB002877D100238DF80730E6
:10496800414B586819680DF107030122497900780D
:10497800FFF7A2FB00286BD103B05DF804FB00230E
:104988008DF80730DDE704238DF80730364B58687B
:1049980019680DF10703012209790078FFF78CFBEC
:1049A800002858D1304B9B7C23B92F4B9B7A13F0AE
:1049B800010F30D140238DF807302B4B5868196808
:1049C8000DF10703012209790078FFF775FB00282C
:1049D80044D1322002F0D8FE234B5B7CFBB101238B
:1049E8008DF80730204B586819680DF1070301222C
:1049F800C97B0078FFF760FB98BB1B4B586853F8DE
:104A0800101B012249790078FFF756FB0028B3D024
:104A18004FF0FF30B0E760238DF80730CDE7002373
:104A28008DF80730DEE74FF0FF3070474FF0FF306A
:104A3800A2E74FF0FF309FE74FF0FF309CE74FF0C1
:104A4800FF3099E74FF0FF3096E74FF0FF3093E7DC
:104A58004FF0FF3090E74FF0FF308DE74FF0FF3019
:104A68008AE74FF0FF3087E7140000200D4B1B7AD0
:104A7800032B13D8DFE803F002060A0EFA2303809B
:104A8800002070474FF4FA730380F9E74FF47A7304
:104A98000380F5E74FF4FA630380F1E7002303800E
:104AA800EEE700BF14000020244B9B7A002B3CD07B
:104AB80000B583B0B0F57A7F33D00BD8FA2813D07D
:104AC800B0F5FA7F03D108238DF807300FE04FF0D7
:104AD800FF3023E0B0F5FA6F03D118238DF80730C3
:104AE80005E04FF0FF3019E000238DF80730134B35
:104AF8001B7A9DF80720B3EBD20F19D00F4B5868DB
:104B080019680DF10703012289790078FFF7D4FAB3
:104B180080B99DF80730DB08084A137203B05DF8C6
:104B280004FB10238DF80730E1E74FF0FF307047A2
:104B38000020F3E74FF0FF30F0E700BF140000203B
:104B48000F4B5B7A032B16D8DFE803F0020C0F1229
:104B5800022303700A4BDB7C83B103785B0003708C
:104B68000020704704230370F4E708230370F1E77B
:104B780010230370EEE74FF0FF30704700207047B6
:104B880014000020234B9B7A002B35D000B583B04E
:104B980002380E2833D8DFE800F0083223323232E8
:104BA80027323232323232322B0000238DF807306E
:104BB800184B5B7A9DF80720B3EBD20F24D0154B26
:104BC800586819680DF107030122C9790078FFF7C1
:104BD80073FAD8B99DF80730DB080E4A537210E013
:104BE80008238DF80730E3E710238DF80730DFE757
:104BF80018238DF80730DBE74FF0FF3070474FF090
:104C0800FF3003B05DF804FB0020FAE74FF0FF30F7
:104C1800F7E700BF140000200F4BDB7A013B052BA0
:104C280017D8DFE803F003070A0D1013BC2303802D
:104C38000020704762230380FAE72A230380F7E7FE
:104C480014230380F4E70A230380F1E70523038094
:104C5800EEE700230380EBE714000020234B9B7A48
:104C6800002B3AD000B583B0BB281AD901238DF8A0
:104C780007301E4BDA7A9DF807309A4230D01B4B2A
:104C8800586819680DF10703012289780078FFF741
:104C980013FA38BB9DF80720144BDA7203B05DF89D
:104CA80004FB612803D902238DF80730E1E729289E
:104CB80003D903238DF80730DBE7132803D904232E
:104CC8008DF80730D5E7092803D905238DF8073073
:104CD800CFE706238DF80730CBE74FF0FF3070475A
:104CE8000020DBE74FF0FF30D8E700BF14000020BA
:104CF800054B93F8243023B9034BDB89038000204C
:104D080070474FF0FF307047140000200D4B1B7A9E
:104D1800032B13D8DFE803F002060A0E0A4B0360E0
:104D280000207047094B036000207047084B036060
:104D380000207047074B0360002070474FF0FF309A
:104D4800704700BF140000200000034300008342A6
:104D58003333034233338341114B5B7A032B1AD825
:104D6800DFE803F0020D11154FF4804303800C4B6C
:104D7800DB7C9BB103885B0803800020704741F609
:104D88009C730380F3E74FF480530380EFE74FF4FD
:104D980000630380EBE74FF0FF3070470020704757
:104DA80014000020024B1B7C03700020704700BFDA
:104DB8001400002070B5174B93F824302BBB00F07B
:104DC800FE04144B9B7A13B3124A167C23401374C7
:104DD800A3420BD04FF0FF3514B90E4B1B7D3BB1EE
:104DE8000120FFF7E7FA3CB9284670BD0025F3E734
:104DF8000020FFF7DFFAF6E7FFF73CFD0028F3D0C5
:104E0800044B1E744FF0FF35EEE70025ECE74FF03A
:104E1800FF35E9E7140000202E4B93F82430002BCF
:104E280049D0F0B583B005460F461646294B9B7A04
:104E3800002B43D0274B5868196801AB0222897AA6
:104E48000078FFF75DF900283BD19DF804009DF834
:104E5800054044EA0024AC4223D31E4B58684388DB
:104E6800B4EB530F0DD91B4B196801AB0122497CD8
:104E78000078FFF745F938BB9DF8043013F0100FA0
:104E880014D1144B586819683B46EAB2C97A0078BD
:104E9800FFF736F9D8B9B4FBF5F4013C347003B028
:104EA800F0BD002333704FF0FF30F8E7FFF7E2FC66
:104EB8006FF00100F3E74FF0FF3070474FF0FF301D
:104EC800EDE74FF0FF30EAE74FF0FF30E7E74FF04C
:104ED800FF30E4E714000020584B9B7C834200F02D
:104EE8009C8010B582B00446002844D0534B5868C3
:104EF80019680DF10703012209790078FFF700F915
:104F0800002840F08C809DF8073023F020038DF8AE
:104F180007304A4B586819680DF1070301220979CF
:104F28000078FFF7C9F800287CD1032002F02CFC98
:104F380002238DF80730414B93F8223013B18223B6
:104F48008DF807303D4B93F823302BB19DF807308F
:104F580043F030038DF80730384B586819680DF165
:104F680007030122097D0078FFF7A6F8002844D03E
:104F78004FF0FF3044E0314B586819680DF10703D2
:104F8800012209790078FFF7BBF800284DD12B4B97
:104F98009B7A13F0010F35D09DF8073043F02003BA
:104FA8008DF80730254B586819680DF10703012261
:104FB80009790078FFF780F8002839D1032002F03A
:104FC800E3FB1E4B93F822301BB380238DF8073088
:104FD8001A4B93F823302BB19DF8073043F0300378
:104FE8008DF80730154B586819680DF10703012231
:104FF800097D0078FFF760F8E8B9104B9C74002031
:1050080002B010BD9DF8073023F020038DF807305B
:10501800C8E700238DF80730DAE7002070474FF023
:10502800FF30EDE74FF0FF30EAE74FF0FF30E7E7FA
:105038004FF0FF30E4E74FF0FF30E1E714000020C5
:105048001B4B93F8233083422DD010B582B0044611
:1050580028B330238DF80730154B9B7C2BB19DF876
:10506800073043F002038DF80730114B93F82230D4
:105078002BB19DF8073063F07F038DF807300C4B98
:10508800586819680DF107030122097D0078FFF7B8
:1050980013F850B9064B83F8234002B010BD002323
:1050A8008DF80730D8E7002070474FF0FF30F4E75D
:1050B8001400002028285FD810B582B00446B8B97B
:1050C8000020FFF7BDFF00238DF8043007238DF87B
:1050D80005302E4B5868196801AB0222897C00788C
:1050E800FEF7EAFF00284AD1284B187502B010BD18
:1050F8000120FFF7A5FF20238DF80430012C26D0CE
:10510800052C2BD9142C30D802238DF805300A2011
:10511800FFF7A4FD9DF805309B0143F007038DF8C8
:1051280005301A4B5868196801AB0222897C00784F
:10513800FEF7C2FF30BB154B08229A7200241C737D
:1051480001221A752046FFF735FE2046CEE70023D8
:105158008DF805300520FFF781FDDBE701238DF889
:1051680005300520FFF77AFDD4E703238DF80530D5
:105178001420FFF773FDCDE74FF0FF3070474FF075
:10518800FF30B3E74FF0FF30B0E700BF1400002056
:10519800264B9B7A002B40D010B582B00446234B97
:1051A80093F82430002B3BD1204B1B7D33B1431E99
:1051B8009BB2272B0AD90020FFF77CFF032C0AD9C2
:1051C800B4F57A7F08D94FF47A7405E0C0B2FFF7D6
:1051D80071FF00201FE004244FF47A7090FBF4F470
:1051E800013C8DF80740114B586819680DF1070309
:1051F800012249780078FEF75FFFA0B99DF8070003
:10520800431C4FF47A7090FBF3F0084BD8814008A8
:10521800FFF724FD002002B010BD4FF0FF307047AB
:105228004FF0FF30F7E74FF0FF30F4E714000020AD
:1052380010B582B0044610F0700F50D001238DF8DD
:105248000730334B586819680DF107030122897C30
:105258000078FEF731FF00284AD19DF8073003F0A7
:10526800BF032B4A137300238DF8073014F0400F47
:1052780002D104238DF8073014F0200F05D19DF8D2
:10528800073043F002038DF8073014F0100F05D1F2
:105298009DF8073043F001038DF8073014F0080F2C
:1052A80005D19DF8073043F038038DF80730184BC7
:1052B800586819680DF107030122C97C0078FEF7C8
:1052C800FBFED8B90CB1082C1ED1114B9C720024DE
:1052D8001C75322002F058FA204602B010BD18B1F1
:1052E80000238DF80730ACE740238DF80730A8E796
:1052F800074B00229A724FF0FF30EEE7044B002272
:105308009A724FF0FF30E8E70020FFF799FEDCE7DC
:105318001400002010B582B080238DF80030674B50
:10532800586819686B460122897C0078FEF7C4FE2C
:10533800002840F0A480642002F026FA00238DF8AB
:1053480000305E4B586819686B460122897C0078EA
:10535800FEF7B2FE002840F09580584B586819684F
:105368006B460622897D0078FEF7CAFE002840F0C9
:105378008C809DF80510890001F004019DF8033028
:105388005B0003F0020319439DF9013003F00103A8
:10539800194352D0012946D0022948D1474B00224F
:1053A800DA74464BFF229A721A725A72DA724FF600
:1053B800FF71D9811A749A7401221A7383F8222012
:1053C800002283F823205A751A75C3F81620C3F8EB
:1053D8001A20C3F81E2083F8242083F82520DA84B5
:1053E8004FF4FA60FFF760FB002854D10220FFF762
:1053F800C9FB002852D12A20FFF730FC002850D1E1
:105408003220FFF7C5FE00284ED1FFF7D3FC002855
:105418004DD1FFF761FD044600284BD1FFF708FF87
:10542800204602B010BD254B0122DA74B9E72448A2
:1054380005F0E6FD4FF0FF34F2E7204B5868196895
:105448006B460122C9780078FEF75AFE00BB9DF82A
:10545800003013F00F0305D0042B09D0174B00229E
:10546800DA749EE7174805F02DFE4FF0FF34D7E7B2
:10547800154805F027FE114B0122DA7491E74FF029
:10548800FF34CDE74FF0FF34CAE74FF0FF34C7E7EA
:105498004FF0FF34C4E74FF0FF34C1E74FF0FF345B
:1054A800BEE74FF0FF34BBE74FF0FF34B8E74FF0EB
:1054B800FF34B5E74FF0FF34B2E700BF1400002017
:1054C80018160108401601088C1601083AB370B581
:1054D80082B00C461646194B9B7A1BB3030A8DF80B
:1054E8000430C0B28DF805000844144B5D686B8920
:1054F80098421ADC114B196801AB0222097E287800
:10550800FEF7DAFDA0B90D4B586819683346E2B2C8
:10551800497D0078FEF7D0FD68B902B070BD4FF044
:10552800FF3070474FF0FF30F7E74FF0FF30F4E7F8
:105538004FF0FF30F1E74FF0FF30EEE714000020A6
:105548003AB370B582B00C461646194B9B7A1BB31A
:10555800030A8DF80430C0B28DF805000844144BD6
:105568005D686B8998421ADC114B196801AB0222FD
:10557800097E2878FEF7A0FDA0B90D4B5868196878
:105588003346E2B2497D0078FEF7BAFD68B902B049
:1055980070BD4FF0FF3070474FF0FF30F7E74FF026
:1055A800FF30F4E74FF0FF30F1E74FF0FF30EEE760
:1055B800140000202DE9F04F87B09A46294B93F844
:1055C8002530002B3CD107468846914600293AD021
:1055D8000024BC421BD23E1B102EA8BF1026B5B219
:1055E80008EB040B5A4629462046FFF76FFF68BBB5
:1055F80002AA29462046FFF7A3FF50BB2A4602A964
:10560800584605F077FC38BB2C44A4B2E1E74FEAD2
:1056180019238DF804308DF80590124B58681968D5
:1056280001AB0222897E0078FEF746FDB8B90D4B22
:10563800012283F82520A3F826A007B0BDE8F08F43
:105648004FF0FF30F9E74FF0FF30F6E74FF0FF304B
:10565800F3E74FF0FF30F0E76FF00100EDE74FF0B0
:10566800FF30EAE714000020234B93F824308342EC
:105678003CD030B583B018B31F4B93F82530002BBE
:1056880036D00020FEF796FE0020FFF725FC1A4DC5
:10569800E88CFFF77DFD00248DF8074068680DF160
:1056A8000703012223210078FEF706FD012085F873
:1056B8002400FEF77FFEFFF7DDF8204603B030BD7B
:1056C8000020FEF777FE0C4D2B7C8DF807306868BC
:1056D8000DF10703012223210078FEF7EDFC0024D9
:1056E80085F82440FFF7C6F82046E7E70020704712
:1056F8004FF0FF30E2E700BF140000202DE9F04131
:1057080088B005460E463D4B93F82470FFB901A8B2
:10571800FFF7ACF90DF10700FFF712FA6846FFF73B
:105728007BFA0DF10200FFF7E3FA344B93F80A8095
:105738000DF10600FFF736FB0024012C0CDC0022DB
:1057480031462846FEF782FE30B10134F5E70020E5
:10575800FFF78AFF0127DAE7022C1FD00024012C6B
:1057680007DC012202A905A8FEF770FE08B1013482
:10577800F5E7022C14D002A93046FEF747FDC6B261
:1057880005A92846FEF796FD10F0FF0F04D0002467
:105798003EB944F0020404E00124F9E7002400E0E3
:1057A8000024164BFF221A725A72DA724FF6FF71F2
:1057B800D9819A721A7401221A73BDF80400FFF78E
:1057C80073F99DF80700FFF7DDF9BDF80000FFF752
:1057D80045FABDF80200FFF7DBFC4046FFF728FD5D
:1057E8009DF80600FFF7E6FA1FB9204608B0BDE8A5
:1057F800F0810120FFF738FFF7E700BF1400002011
:1058080010B588B002A905A8FFF778FF032802D0D1
:10581800012008B010BD01A8FFF778FA019C05988F
:10582800FBF794FA2146FBF7E5FAFBF7A9FC05908C
:105838000698FBF78BFA2146FBF7DCFAFBF7A0FC8E
:1058480006900798FBF782FA2146FBF7D3FAFBF795
:1058580097FC079005A800F04BFA0DF10200FFF73E
:105868007BFABDF80220029B02FB03F30293039B21
:1058780002FB03F30393049B02FB03F3049302A8C4
:1058880000F0BEFA0020C4E790F90030002B01DDDB
:10589800002070470FDB90F90130002B01DD01205B
:1058A80070470ADB90F90230002B08DC01DB072087
:1058B8007047062070470420704705207047022073
:1058C800704738B50546FFF7DFFF0446E81CFFF7C9
:1058D800DBFF44EAC00424B2A81DFFF7D5FF44EA61
:1058E800801080B238BD704708B5FFF713FD08B1C6
:1058F800002008BD7820FFF79BFC10F0FF0F01D0B7
:105908000120F6E77820FFF755FA10F0FF0F2AD1AB
:105918006420FFF73DFC10F0FF0F26D100F036F9A8
:1059280010F0FF0F23D11748FFF7CBFF00F03AF92B
:1059380010F0FF0F1DD140F2731000F0F9FC10F0C9
:10594800FF0F18D1642000F0D5FA10F0FF0F14D122
:10595800FFF756FF98B90120FFF786FE10F0FF0009
:10596800C7D00920C5E70220C3E70320C1E7042008
:10597800BFE70520BDE70620BBE70720B9E70820F9
:10598800B7E700BF080000202DE9F04F8FB00646AA
:10599800029193460DF1210301930DF12203009327
:1059A8000DAB04AA09A90BA800F0CEFD002840F011
:1059B800C780BDF8223013F4807F00F0C3800498BC
:1059C800FBF7C4F94FF04251FBF714FA82460598E9
:1059D800FBF7BCF94FF04251FBF70CFA0546069865
:1059E800FBF7B4F94FF04251FBF704FA0446079865
:1059F800FBF7ACF94FF04251FBF7FCF907464FF0C3
:105A080040412846FBF7F6F981463946FBF7F2F99B
:105A1800804651465046FBF7E5F803902146FBF7D0
:105A2800E9F901464046FBF7DDF8FAF75DFD04F0B9
:105A38007DFC45A3D3E90023FAF7AEFDFBF77CF81C
:105A4800306021462046FBF7CDF880463946FBF703
:105A5800D1F9064629460398FBF7CCF901463046AA
:105A6800FBF7C0F8064629464846FBF7C3F98146C6
:105A780021464046FBF7BEF901464846FBF7B0F819
:105A88004FF07E51FBF7AEF8FAF72EFD80468946B7
:105A98003046FAF729FD42464B4604F06FFC2AA32C
:105AA800D3E90023FAF778FDFBF746F8029B186064
:105AB80021462846FBF79EF9064639465046FBF72D
:105AC80099F901463046FBF78DF80146FBF78AF84D
